S01B0000536F667477617265204D432050726F6A6563742E7372656317
S11300000C942A000C9447000C9447000C9447006D
S11300100C9447000C9447000C9447000C94470040
S11300200C9447000C9447000C9447000C94470030
S11300300C9447000C9447000C9447000C94470020
S11300400C9447000C9447000C9447000C94470010
S11300500C94470011241FBECFE5D8E0DEBFCDBF0E
S113006010E0A0E6B0E0E8EBFFE002C005900D92DE
S1130070A83CB107D9F720E0A8ECB0E001C01D927C
S1130080AE3CB207E1F70E9441030C94DA070C94EA
S11300900000683008F06FC0843008F06CC0813014
S11300A001F130F08230B1F1833009F44CC008958D
S11300B0413059F42AB381E090E002C0880F991FBF
S11300C06A95E2F7822B8ABB08952AB381E090E017
S11300D002C0880F991F6A95E2F7809582238ABB34
S11300E00895413059F427B381E090E002C0880FAD
S11300F0991F6A95E2F7822B87BB089527B381E0A5
S113010090E002C0880F991F6A95E2F780958223D8
S113011087BB0895413059F424B381E090E002C0D4
S1130120880F991F6A95E2F7822B84BB089524B344
S113013081E090E002C0880F991F6A95E2F78095EC
S1130140822384BB0895413059F421B381E090E0C7
S113015002C0880F991F6A95E2F7822B81BB08952C
S113016021B381E090E002C0880F991F6A95E2F7FD
S11301708095822381BB0895843008F06FC0683075
S113018008F06CC0813001F130F08230B1F183307D
S113019009F44CC00895413059F42BB381E090E048
S11301A002C0880F991F6A95E2F7822B8BBB0895D2
S11301B02BB381E090E002C0880F991F6A95E2F7A3
S11301C0809582238BBB0895413059F428B381E094
S11301D090E002C0880F991F6A95E2F7822B88BBD2
S11301E0089528B381E090E002C0880F991F6A95B2
S11301F0E2F78095822388BB0895413059F425B3F2
S113020081E090E002C0880F991F6A95E2F7822B83
S113021085BB089525B381E090E002C0880F991F43
S11302206A95E2F78095822385BB0895413059F49D
S113023022B381E090E002C0880F991F6A95E2F72B
S1130240822B82BB089522B381E090E002C0880F24
S1130250991F6A95E2F78095822382BB0895CF9314
S1130260C82F40E061E080E00E94BC0089EF90E08C
S11302700197F1F700C0000041E062E080E00E94D5
S1130280BC0089EF90E00197F1F700C00000C4FBC7
S1130290442740F963E080E00E94BC00C5FB44278A
S11302A040F964E080E00E94BC00C6FB442740F9AA
S11302B065E080E00E94BC004C2F441F4427441F8B
S11302C066E080E00E94BC0089EF90E00197F1F7BE
S11302D000C0000040E062E080E00E94BC0089EFC2
S11302E090E00197F1F700C0000041E062E080E097
S11302F00E94BC0089EF90E00197F1F700C0000074
S11303004C2F417063E080E00E94BC00C1FB442795
S113031040F964E080E00E94BC00C2FB442740F93D
S113032065E080E00E94BC00C3FB442740F966E01E
S113033080E00E94BC0089EF90E00197F1F700C0D3
S1130340000040E062E080E00E94BC0089EF90E0A1
S11303500197F1F700C00000CF91089541E061E0FA
S113036080E00E94490041E062E080E00E94490090
S113037087E893E10197F1F700C0000041E066E0EF
S113038080E00E94490041E065E080E00E9449006D
S113039041E064E080E00E94490041E063E080E0E5
S11303A00E94490083E30E942F0182E30E942F01EF
S11303B088E20E942F018CE00E942F0181E00E94BC
S11303C02F010895CF93C82F41E061E080E00E949F
S11303D0BC0089EF90E00197F1F700C0000041E014
S11303E062E080E00E94BC0089EF90E00197F1F7A1
S11303F000C00000C4FB442740F963E080E00E9491
S1130400BC00C5FB442740F964E080E00E94BC00C6
S1130410C6FB442740F965E080E00E94BC004C2FF5
S1130420441F4427441F66E080E00E94BC0089EF1B
S113043090E00197F1F700C0000040E062E080E046
S11304400E94BC0089EF90E00197F1F700C0000022
S113045041E062E080E00E94BC0089EF90E00197F7
S1130460F1F700C000004C2F417063E080E00E946F
S1130470BC00C1FB442740F964E080E00E94BC005A
S1130480C2FB442740F965E080E00E94BC00C3FB46
S1130490442740F966E080E00E94BC0089EF90E0C8
S11304A00197F1F700C0000040E062E080E00E94A4
S11304B0BC0089EF90E00197F1F700C00000CF91F4
S11304C00895CF93DF93EC0103C00E94E2012196CB
S11304D088818111FACFDF91CF91089581E00E9444
S11304E02F010895CF93DF93CDB7DEB760970FB692
S11304F0F894DEBF0FBECDBF4AE050E0BE016F5F8F
S11305007F4F0E949A07CE0101960E946102609675
S11305100FB6F894DEBF0FBECDBFDF91CF91089523
S11305208091CC009091CD00009711F41CBE0895E9
S11305308130910519F484E58CBF0895029719F46C
S113054080EC8CBF08958FEF8CBF089586B18160D5
S113055086B986B1826086B986B1846086B986B16F
S1130560806886B9089590EC97B997B1892B87B9BB
S113057086B1806486B93699FECF84B195B1089569
S113058088B38F7E88BB88B3806288BB88B380645D
S113059088BB88B3806888BB8FE39CE90197F1F737
S11305A000C00000829B4EC0839B4EC0849B4EC003
S11305B088B3806188BB88B38F7D88BB88B380642F
S11305C088BB88B3806888BB8FE39CE90197F1F707
S11305D000C00000829B3CC0839B3CC0849B3CC009
S11305E088B3806188BB88B3806288BB88B38F7B03
S11305F088BB88B3806888BB8FE39CE90197F1F7D7
S113060000C00000829B2AC0839B2AC0849B2AC00E
S113061088B3806188BB88B3806288BB88B38064F8
S113062088BB88B38F7788BB8FE39CE90197F1F788
S113063000C00000829B18C0839B18C0849918C016
S113064083E2089581E3089582E3089583E308959E
S113065084E3089585E3089586E3089587E3089580
S113066088E3089589E308958AE2089580E308956C
S113067081E6089581E602C00E94C0028136E1F35A
S113068008952F923F924F925F926F927F928F9232
S11306909F92AF92BF92CF92DF92EF92FF920F930D
S11306A01F93CF93DF93CDB7DEB727970FB6F89498
S11306B0DEBF0FBECDBF0E94AE010E94A60280EF36
S11306C087BB87E084BB87B3886087BB1CBE83B7C6
S11306D0886683BF83B7826083BF85B3816085BB2F
S11306E085B38D7F85BB77C00E946E028091CA005E
S11306F09091CB00009741F482E690E00E94610261
S113070080EC0E942F0109C0019739F484E790E03E
S11307100E94610280EC0E942F0100E010E018C0EA
S11307200E943A03B82E2FEF81EE94E021508040CE
S11307309040E1F700C000008B2D0E94E201E1E04F
S1130740F0E0EC0FFD1FE00FF11FB0820F5F1F4FB1
S1130750033011052CF38981813329F58A81823391
S113076011F58B818333F9F42FEF81EE94E021505E
S113077080409040E1F700C000000E946E0283E8D0
S113078090E00E9461022FEF8DE399E421508040B4
S11307909040E1F700C0000081E090E09093C90030
S11307A08093C80025C081E090E09093CB008093B3
S11307B0CA0080916000909161000196909361005D
S11307C0809360002FEF81EE94E0215080409040B0
S11307D0E1F700C000008091C8009091C900892B06
S11307E039F4809160009091610004970CF47CCFFF
S11307F08091C8009091C900019751F035C17A2CBD
S11308006B2C502E412E2C823D828E829F8208C0FA
S11308101C821D821E821F82712C612C512C412C42
S113082085B38E7F85BB85B3826085BB80E00E94E3
S1130830B302BC0180E090E00E94760620E030E044
S113084040EA50E40E942D0720E030EC4FE754E4E6
S11308500E94CE0520E030E048EC52E40E942D07CF
S113086020E030E040E05FE30E942D07A62EB72E83
S1130870082F192F0E94900287E00E94B302BC0146
S113088080E090E00E94760620E030E040EA50E408
S11308900E942D0720E030EC4FE754E40E94CE057F
S11308A020E030E048EC52E40E942D07262E372E3B
S11308B0882E992E2A2D3B2D402F512F672D762DD2
S11308C0852D942D0E94C90581110DC0222D332D33
S11308D0482D592D6C817D818E819F810E94C9058F
S11308E0882309F443C020E030E040E85FE36A2D48
S11308F07B2D802F912F0E945D052B013C01222D21
S1130900332D482D592D60E070E08AEF93E40E9466
S11309105C0520E030E04AEF53E40E94CE0520E07D
S113092030E048EC52E40E942D076B017C010E94E8
S11309306E0281E990E00E946102C301B2010E944B
S11309404006CB010E94720280EC0E942F0181EAD2
S113095090E00E946102C701B6010E944006CB01EB
S11309600E94720289EA90E00E94610220E030E075
S113097040EA51E46A2D7B2D802F912F0E94C905F6
S113098088232CF41092CD001092CC0050C020E0AB
S113099030E040EA51E46A2D7B2D802F912F0E9494
S11309A0280788239CF020E030E048EC51E46A2DCD
S11309B07B2D802F912F0E94C90588233CF481E070
S11309C090E09093CD008093CC0031C020E030E0E3
S11309D048EC51E46A2D7B2D802F912F0E9428072B
S11309E088239CF020E030E04CE052E46A2D7B2D1B
S11309F0802F912F0E94C90588233CF482E090E067
S1130A009093CD008093CC0012C020E030E04CE005
S1130A1052E46A2D7B2D802F912F0E942807882372
S1130A2034F083E090E09093CD008093CC0020E0FC
S1130A3030E048E452E4C701B6010E94C9058823A6
S1130A4024F485B3846085BBDACE20E030E048E44A
S1130A5052E4C701B6010E94280788230CF4CFCEC4
S1130A6085B38B7F85BBCBCE0E946E028BEA90E070
S1130A700E94610280EC0E942F018BEB90E00E94A7
S1130A80610280E090E027960FB6F894DEBF0FBEB7
S1130A90CDBFDF91CF911F910F91FF90EF90DF9029
S1130AA0CF90BF90AF909F908F907F906F905F900A
S1130AB04F903F902F9008955058BB27AA270E942B
S1130AC074050C94EE060E94E00638F00E94E706D6
S1130AD020F039F49F3F19F426F40C94DD060EF44B
S1130AE0E095E7FB0C94D706E92F0E94FF0658F324
S1130AF0BA17620773078407950720F079F4A6F5FF
S1130B000C9421070EF4E0950B2EBA2FA02D0B01A7
S1130B10B90190010C01CA01A0011124FF27591B3E
S1130B2099F0593F50F4503E68F11A16F040A22F44
S1130B30232F342F4427585FF3CF469537952795B5
S1130B40A795F0405395C9F77EF41F16BA0B620BB4
S1130B50730B840BBAF09150A1F0FF0FBB1F661FFB
S1130B60771F881FC2F70EC0BA0F621F731F841F3E
S1130B7048F4879577956795B795F7959E3F08F064
S1130B80B0CF9395880F08F09927EE0F9795879526
S1130B9008950E94B30608F481E008950E94E205D6
S1130BA00C94EE060E94E70658F00E94E00640F01E
S1130BB029F45F3F29F00C94D70651110C942207B5
S1130BC00C94DD060E94FF0668F39923B1F35523C4
S1130BD091F3951B550BBB27AA276217730784074C
S1130BE038F09F5F5F4F220F331F441FAA1FA9F3E2
S1130BF035D00E2E3AF0E0E832D091505040E695D0
S1130C00001CCAF72BD0FE2F29D0660F771F881F30
S1130C10BB1F261737074807AB07B0E809F0BB0B23
S1130C20802DBF01FF2793585F4F3AF09E3F510537
S1130C3078F00C94D7060C9422075F3FE4F3983EB7
S1130C40D4F3869577956795B795F7959F5FC9F720
S1130C50880F911D9695879597F90895E1E0660FA1
S1130C60771F881FBB1F621773078407BA0720F01A
S1130C70621B730B840BBA0BEE1F88F7E095089583
S1130C800E9447066894B1110C94220708950E94AB
S1130C90070788F09F5798F0B92F9927B751B0F0FC
S1130CA0E1F0660F771F881F991F1AF0BA95C9F7EC
S1130CB014C0B13091F00E942107B1E008950C9462
S1130CC02107672F782F8827B85F39F0B93FCCF315
S1130CD0869577956795B395D9F73EF49095809569
S1130CE0709561957F4F8F4F9F4F0895E89409C089
S1130CF097FB3EF490958095709561957F4F8F4F4B
S1130D009F4F9923A9F0F92F96E9BB279395F69560
S1130D10879577956795B795F111F8CFFAF4BB0FDE
S1130D2011F460FF1BC06F5F7F4F8F4F9F4F16C042
S1130D30882311F096E911C0772321F09EE8872FCC
S1130D40762F05C0662371F096E8862F70E060E088
S1130D502AF09A95660F771F881FDAF7880F969501
S1130D60879597F90895990F0008550FAA0BE0E8A5
S1130D70FEEF16161706E807F907C0F01216130659
S1130D80E407F50798F0621B730B840B950B39F499
S1130D900A2661F0232B242B252B21F408950A26FF
S1130DA009F4A140A6958FEF811D811D089597F93F
S1130DB09F6780E870E060E008959FEF80EC0895FD
S1130DC000240A9416161706180609060895002426
S1130DD00A9412161306140605060895092E0394A0
S1130DE0000C11F4882352F0BB0F40F4BF2B11F414
S1130DF060FF04C06F5F7F4F8F4F9F4F089557FD73
S1130E009058440F551F59F05F3F71F04795880F74
S1130E1097FB991F61F09F3F79F08795089512160B
S1130E2013061406551FF2CF4695F1DF08C01616B7
S1130E3017061806991FF1CF869571056105089468
S1130E400895E894BB2766277727CB0197F908957F
S1130E500E94B30608F48FEF08950E9440070C9493
S1130E60EE060E94E00638F00E94E70620F0952383
S1130E7011F00C94D7060C94DD0611240C9422076F
S1130E800E94FF0670F3959FC1F3950F50E0551F24
S1130E90629FF001729FBB27F00DB11D639FAA27CB
S1130EA0F00DB11DAA1F649F6627B00DA11D661F1A
S1130EB0829F2227B00DA11D621F739FB00DA11D3B
S1130EC0621F839FA00D611D221F749F3327A00DF5
S1130ED0611D231F849F600D211D822F762F6A2F91
S1130EE011249F5750409AF0F1F088234AF0EE0FF6
S1130EF0FF1FBB1F661F771F881F91505040A9F723
S1130F009E3F510580F00C94D7060C9422075F3F56
S1130F10E4F3983ED4F3869577956795B795F7955E
S1130F20E7959F5FC1F7FE2B880F911D96958795D6
S1130F3097F908954532510520F4423010F00C948D
S1130F40A507FB011082CB010895BB274A3031F479
S1130F50992322F4BDE2909581959F4F0C94B1079B
S1130F60BB27FB015527AA27880F991FAA1FA4177F
S1130F7010F0A41B83955051B9F7A05DAA3308F073
S1130F80A95DA193009779F7B111B1931192CB01A7
S1130F900C94CA07DC01FC01672F71917723E1F7F8
S1130FA0329704C07C916D9370836291AE17BF0732
S10B0FB0C8F30895F894FFCF83
S1130FB801002020456E7465722050617373776F49
S1130FC872643A00202054727920416761696E2E58
S1130FD82E2E0020202057656C636F6D65203A29FA
S1130FE80020202054656D70657261747572653ACD
S1130FF8004C696768743A20002500202057726FF6
S11310086E67203320747269657300676F6F64209C
S10B1018627965203A2800000A
S9030000FC
