:100000000C942A000C9447000C9447000C94470071
:100010000C9447000C9447000C9447000C94470044
:100020000C9447000C9447000C9447000C94470034
:100030000C9447000C9447000C9447000C94470024
:100040000C9447000C9447000C9447000C94470014
:100050000C94470011241FBECFE5D8E0DEBFCDBF12
:1000600010E0A0E6B0E0E4EEFAE002C005900D92E8
:10007000A637B107D9F720E0A6E7B0E001C01D928E
:10008000A837B207E1F70E945B020C9470050C944C
:100090000000683008F044C0843008F041C082306D
:1000A00011F1833079F1813079F02AB381E090E069
:1000B00001C0880F6A95EAF7413011F4822B02C023
:1000C000809582238ABB089527B381E090E001C028
:1000D000880F6A95EAF7413011F4822B02C08095AF
:1000E000822387BB089524B381E090E001C0880F8C
:1000F0006A95EAF7413011F4822B02C08095822381
:1001000084BB089521B381E090E001C0880F6A9517
:10011000EAF7413011F4822B02C08095822381BB23
:100120000895843008F044C0683008F041C082303F
:1001300011F1833079F1813079F02BB381E090E0D7
:1001400001C0880F6A95EAF7413011F4822B02C092
:10015000809582238BBB089528B381E090E001C095
:10016000880F6A95EAF7413011F4822B02C080951E
:10017000822388BB089525B381E090E001C0880FF9
:100180006A95EAF7413011F4822B02C080958223F0
:1001900085BB089522B381E090E001C0880F6A9585
:1001A000EAF7413011F4822B02C08095822382BB92
:1001B0000895CF93C82F40E061E080E00E94910055
:1001C00089EF90E00197F1F700C0000041E062E0A4
:1001D00080E00E94910089EF90E00197F1F700C064
:1001E0000000C4FB442740F963E080E00E949100D6
:1001F000C5FB442740F964E080E00E949100C6FB03
:10020000442740F965E080E00E9491004C2F441F94
:100210004427441F66E080E00E94910089EF90E04F
:100220000197F1F700C0000040E062E080E00E942A
:10023000910089EF90E00197F1F700C0000041E0E4
:1002400062E080E00E94910089EF90E00197F1F771
:1002500000C000004C2F417063E080E00E949100DC
:10026000C1FB442740F964E080E00E949100C2FB9A
:10027000442740F965E080E00E949100C3FB4427D9
:1002800040F966E080E00E94910089EF90E00197DC
:10029000F1F700C0000040E062E080E00E949100C1
:1002A00089EF90E00197F1F700C00000CF91089529
:1002B00041E061E080E00E94490041E062E080E0CE
:1002C0000E94490087E893E10197F1F700C0000020
:1002D00041E066E080E00E94490041E065E080E0A6
:1002E0000E94490041E064E080E00E94490041E052
:1002F00063E080E00E94490083E30E94D90082E32A
:100300000E94D90088E20E94D9008CE00E94D900A6
:1003100081E00C94D900CF93C82F41E061E080E0E8
:100320000E94910089EF90E00197F1F700C0000072
:1003300041E062E080E00E94910089EF90E0019747
:10034000F1F700C00000C4FB442740F963E080E0FF
:100350000E949100C5FB442740F964E080E00E94C0
:100360009100C6FB442740F965E080E00E949100BF
:100370004C2F441F4427441F66E080E00E949100F8
:1003800089EF90E00197F1F700C0000040E062E0E3
:1003900080E00E94910089EF90E00197F1F700C0A2
:1003A000000041E062E080E00E94910089EF90E06F
:1003B0000197F1F700C000004C2F417063E080E02E
:1003C0000E949100C1FB442740F964E080E00E9454
:1003D0009100C2FB442740F965E080E00E94910053
:1003E000C3FB442740F966E080E00E94910089EF5A
:1003F00090E00197F1F700C0000040E062E080E08B
:100400000E94910089EF90E00197F1F700C0000091
:10041000CF910895CF93DF93EC018991882319F050
:100420000E948B01FACFDF91CF91089581E00C9467
:10043000D900CF93DF93CDB7DEB760970FB6F894AE
:10044000DEBF0FBECDBF4AE050E0BE016F5F7F4F01
:100450000E943005CE0101960E940A0260960FB6F6
:10046000F894DEBF0FBECDBFDF91CF91089580918C
:10047000760090917700009711F41CBE08958130AA
:10048000910511F484E505C0029711F480EC01C0D8
:100490008FEF8CBF0895309A319A329A379A089527
:1004A00090EC97B997B1892B87B9369A3699FECFD8
:1004B00084B195B108950E9458010E944B02A49AFC
:1004C00088988998BB9A1CBE83B7886683BF83B718
:1004D000826083BF212C312C412C512C00E010E094
:1004E000E12CF12C23E0C22ED12C32E0A32EB12C32
:1004F00080E00E945002BC0180E090E00E940C0469
:100500002AE037ED43E250E40E94C30420E030ECDF
:100510004FE754E40E94640320E030E048EC52E4EA
:100520000E94C304EB01782E692E0E943702809B43
:1005300016C02FEF81EE94E0215080409040E1F70B
:1005400000C000004801819B07C02FEF821A920A69
:10055000AC9AEE24E394F12C8199FECF22C0819BCA
:100560002DC08FEF91EE24E0815090402040E1F7C4
:1005700000C00000809B0EC00115110529F0480144
:1005800081E0881A910841F4AC98812C912CE12CDF
:10059000F12C05C0480103C0EE24E394F12C8099AE
:1005A000FECF9E01472D562DB101C2010E945F036F
:1005B00081110EC00815190559F423C09E01472D5D
:1005C000562DB101C2010E945F038823D1F048017A
:1005D0000E94160280E690E00E940A02BE01872D6A
:1005E000962D0E94D603CB010E94190280EC0E9436
:1005F000D9008EE690E00E940A02C4010E9419020E
:10060000840191E0E916F10409F054C020E030E0E3
:1006100040EA51E4BE01872D962D0E945F0387FDBD
:1006200049C020E030E040EA51E4BE01872D962D1C
:100630000E94BE0487FD13C020E030E048EC51E486
:10064000BE01872D962D0E945F0387FF08C0F092A0
:100650007700E09276001E01472C562C49CF20E00F
:1006600030E048EC51E4BE01872D962D0E94BE0477
:1006700087FD10C020E030E04CE052E4BE01872D41
:10068000962D0E945F0387FF05C0B0927700A0926D
:100690007600E1CF20E030E04CE052E4BE01872D4F
:1006A000962D0E94BE0487FDD6CFD0927700C092CF
:1006B0007600D1CF1092770010927600CCCF0E94B6
:1006C000490408F481E008950E9478030C9484049E
:1006D0000E947D0458F00E94760440F029F45F3FA8
:1006E00029F00C946D0451110C94B8040C9473040B
:1006F0000E94950468F39923B1F3552391F3951B58
:10070000550BBB27AA2762177307840738F09F5F32
:100710005F4F220F331F441FAA1FA9F335D00E2E9F
:100720003AF0E0E832D091505040E695001CCAF70C
:100730002BD0FE2F29D0660F771F881FBB1F2617CF
:1007400037074807AB07B0E809F0BB0B802DBF01A6
:10075000FF2793585F4F3AF09E3F510578F00C9475
:100760006D040C94B8045F3FE4F3983ED4F386958F
:1007700077956795B795F7959F5FC9F7880F911D96
:100780009695879597F90895E1E0660F771F881F82
:10079000BB1F621773078407BA0720F0621B730B35
:1007A000840BBA0BEE1F88F7E09508950E94DD03D5
:1007B0006894B1110C94B80408950E949D0488F0C7
:1007C0009F5798F0B92F9927B751B0F0E1F0660F15
:1007D000771F881F991F1AF0BA95C9F714C0B13056
:1007E00091F00E94B704B1E008950C94B704672F0C
:1007F000782F8827B85F39F0B93FCCF38695779585
:100800006795B395D9F73EF490958095709561956D
:100810007F4F8F4F9F4F0895E89409C097FB3EF498
:1008200090958095709561957F4F8F4F9F4F99233D
:10083000A9F0F92F96E9BB279395F69587957795BB
:100840006795B795F111F8CFFAF4BB0F11F460FF7B
:100850001BC06F5F7F4F8F4F9F4F16C0882311F0D3
:1008600096E911C0772321F09EE8872F762F05C0E7
:10087000662371F096E8862F70E060E02AF09A9582
:10088000660F771F881FDAF7880F9695879597F977
:100890000895990F0008550FAA0BE0E8FEEF161611
:1008A0001706E807F907C0F012161306E407F50764
:1008B00098F0621B730B840B950B39F40A2661F0D8
:1008C000232B242B252B21F408950A2609F4A1407B
:1008D000A6958FEF811D811D089597F99F6780E888
:1008E00070E060E008959FEF80EC089500240A9482
:1008F0001616170618060906089500240A941216FB
:100900001306140605060895092E0394000C11F42D
:10091000882352F0BB0F40F4BF2B11F460FF04C0DA
:100920006F5F7F4F8F4F9F4F089557FD9058440F33
:10093000551F59F05F3F71F04795880F97FB991F3E
:1009400061F09F3F79F087950895121613061406FB
:10095000551FF2CF4695F1DF08C016161706180688
:10096000991FF1CF86957105610508940895E89463
:10097000BB2766277727CB0197F908950E94490482
:1009800008F48FEF08950E94D6040C9484040E940A
:10099000760438F00E947D0420F0952311F00C9429
:1009A0006D040C94730411240C94B8040E949504F3
:1009B00070F3959FC1F3950F50E0551F629FF001B2
:1009C000729FBB27F00DB11D639FAA27F00DB11DCB
:1009D000AA1F649F6627B00DA11D661F829F222754
:1009E000B00DA11D621F739FB00DA11D621F839FDB
:1009F000A00D611D221F749F3327A00D611D231FB1
:100A0000849F600D211D822F762F6A2F11249F57FE
:100A100050409AF0F1F088234AF0EE0FFF1FBB1F01
:100A2000661F771F881F91505040A9F79E3F5105C0
:100A300080F00C946D040C94B8045F3FE4F3983E8E
:100A4000D4F3869577956795B795F795E7959F5F6A
:100A5000C1F7FE2B880F911D9695879597F90895FC
:100A60004532510520F4423010F00C943B05FB0157
:100A70001082CB010895BB274A3031F4992322F428
:100A8000BDE2909581959F4F0C944705BB27FB01D4
:100A90005527AA27880F991FAA1FA41710F0A41B77
:100AA00083955051B9F7A05DAA3308F0A95DA193D1
:100AB000009779F7B111B1931192CB010C946005B5
:100AC000DC01FC01672F71917723E1F7329704C0B5
:100AD0007C916D9370836291AE17BF07C8F3089540
:040AE000F894FFCFB8
:100AE4002054656D70657261747572653A002043B7
:060AF4006F756E743A00FC
:00000001FF
